:100000000C94C6000C94EE000C94EE000C94EE00E0
:100010000C94EE000C94EE000C94EE000C94EE00A8
:100020000C94EE000C94EE000C9489090C94F809E1
:100030000C94EE000C94EE000C94EE000C94EE0088
:100040000C94EE000C94EE000C94EE000C94EE0078
:100050000C94EE000C94EE000C94EE000C942A0C20
:100060000C94EE000C94EE000C94EE000C94EE0058
:100070000C94EE000C94EE000C94EE000C94EE0048
:100080000C94EE000C94EE000C94EE000C94EE0038
:100090000C94740C0C94EE000C94EE000C94EE0096
:1000A0000C94EE000C94EE000C94EE0000000000A6
:1000B000250028002B002E00310004040404040352
:1000C00004050202020204030202020206060606F8
:1000D000060604040202020404040802011040801F
:1000E000401020408040800802040180402010021F
:1000F00001108010204040200000000200090F0085
:1001000000030401000C00000000000000000000DB
:10011000000000000000080B0002020200000904B9
:100120000000010202000005240010010524010165
:1001300001042402060524060001070581031000BE
:100140004009040100020A00000007050202400005
:1001500000070583024000000403090412010002A5
:10016000EF0201404F1B0692000101020301537090
:1001700061726B46756E00537061726B46756E20CE
:1001800050726F204D6963726F00930D11241FBE72
:10019000CFEFDAE0DEBFCDBF11E0A0E0B1E0ECE9E7
:1001A000F6E202C005900D92AC3BB107D9F723E00F
:1001B000ACEBB1E001C01D92A230B207E1F710E054
:1001C000C6ECD0E004C02197FE010E941212C53C8B
:1001D000D107C9F70E94CB0D0C944C130C9400006E
:1001E000FC0180914302882311F13FB7F89482E02B
:1001F0008093E9002091F200822F90E018161906F2
:1002000014F481E090E0882339F0289844E6409384
:1002100042024091F1004083222339F02091F20004
:10022000211103C02BE62093E8003FBF08958FEF14
:100230009FEF08952FB7F89483E08093E9009091A1
:10024000E800892F807295FF04C09091F20080E44D
:10025000891B2FBF089580913A0281110DC082E061
:100260008093360284E08093370210923902109214
:10027000380281E080933A0286E392E0089508957F
:10028000089540912B0250912C0220912902309127
:100290002A0242175307B4F49091E8009570E1F3F5
:1002A0009091E80092FD19C08093F10080912B029B
:1002B00090912C0201968F739927892B19F48EEF58
:1002C0008093E80080912B0290912C0201969093EC
:1002D0002C0280932B0281E0089580E00895EF9234
:1002E000FF920F931F93CF93DF93F82E192FE62ED3
:1002F000042F81E0860F880F0E94410183E00E9455
:100300004101CF2DD12FEC0EFD2EF11CCE15DF05B6
:10031000B9F007FF13C0FE0184910E944101182F1C
:1003200080E00E944101812321968111EFCFDF916E
:10033000CF911F910F91FF90EF9008958881EDCF9D
:1003400081E0F5CFDF92EF92FF920F931F93CF934F
:10035000DF93D82E8A01EB017B01E40EF51ECE154A
:10036000DF0559F0D7FE12C0FE0184910E944101C1
:1003700021968111F4CF0FEF1FEFC801DF91CF91CC
:100380001F910F91FF90EF90DF9008958881EECF3D
:100390000F931F93CF93DF931F92CDB7DEB782E009
:1003A000898342E450E066E171E080E80E94A201A6
:1003B0000E942B01DC0112960D911C910115110573
:1003C00089F0D801ED91FC910280F381E02DBE010E
:1003D0006F5F7F4FC801099597FD04C0F801008544
:1003E0001185ECCF89810F90DF91CF911F910F91F3
:1003F0000895615030F02091F100FC0120830196B6
:10040000F8CF289884E6809342020895CF93DF9333
:100410001F92CDB7DEB76983DC01ED91FC910280BC
:10042000F381E02D41E050E0BE016F5F7F4F099501
:100430000F90DF91CF91089583E08093E900809140
:10044000F200882319F08AE38093E80008950E945F
:100450001A0190E00895CF93DF931F92CDB7DEB7D6
:10046000FC018485958597FD08C02FEF3FEF358708
:1004700024870F90DF91CF910895CE0101960E94BD
:10048000F000019719F4898190E0F3CF8FEF9FEF8F
:10049000F0CF0F931F93CF93DF931F92CDB7DEB7AB
:1004A0008C01FC018485958597FF0BC0CE010196D8
:1004B0000E94F000019771F4898190E0F80195871E
:1004C0008487F801848595850F90DF91CF911F91E6
:1004D0000F9108958FEF9FEFF1CFFC0184859585F3
:1004E00097FD0BC09FB7F89482E08093E90080915C
:1004F000F2009FBF90E0019608959FB7F89482E0C4
:100500008093E9008091F2009FBF90E00895282F2A
:1005100030E0F901E850FF4F9491F901E752FF4FA5
:10052000849126543F4FF9012491222309F430C0CD
:100530009923E9F091509F30D0F4E92FF0E0ED5588
:10054000FD4F0C941212D102D502B202C902CD02A3
:10055000B702B702B702D802DE02E202E602EC02FC
:10056000B702F002909180009F7790938000E22F75
:10057000F0E0EE0FFF1FE455FF4FA591B4919FB738
:10058000F894EC91611132C080958E238C939FBFBB
:100590000895909180009F7DE8CF90918000977F93
:1005A000E4CF94B59F7794BDE2CF94B59F7DFBCF08
:1005B000909190009F7790939000D9CF9091900068
:1005C0009F7DF9CF90919000977FF5CF9091C000DB
:1005D0009F779093C000CBCF9091C0009F7DF9CFC3
:1005E0009091C200977F9093C200C1CF8E2BCECF47
:1005F0003FB7F8948091250290912602A09127029E
:10060000B091280226B5A89B05C02F3F19F001968E
:10061000A11DB11D3FBFBA2FA92F982F8827BC015C
:10062000CD01620F711D811D911D42E0660F771F84
:10063000881F991F4A95D1F708958F929F92AF9284
:10064000BF92CF92DF92EF92FF924B015C010E942A
:10065000F8026B017C010E94F8026C197D098E0979
:100660009F09683E734081059105A8F321E0821A35
:100670009108A108B10888EEC80E83E0D81EE11CDD
:10068000F11C81149104A104B10429F7FF90EF90AB
:10069000DF90CF90BF90AF909F908F9008958F92F2
:1006A0009F92AF92BF92CF92DF92EF92FF920F9301
:1006B0001F93CF93DF936C017B018A0180910B0123
:1006C000882309F45CC080914302882309F457C051
:1006D00080912F0280FF05C08091E00082608093AE
:1006E000E000E801B12C8AEFA82E93E0892E2AE3DE
:1006F000922E209711F4BB20D9F10E941A0181118A
:100700000AC0AA94AA20D9F161E070E080E090E0EC
:100710000E941D03EECF8C171D0611F00CF08C2FDC
:100720009FB7F8948092E9002091E80025FD02C06F
:100730009FBFDFCF282F30E0C21BD30BF7018150C2
:1007400020F041914093F100FACFE20EF31EBB205E
:1007500021F09092E800B12CEBCF8091E80085FD6C
:10076000E7CF9092E800BB24B394209709F3F3CF2E
:100770005D9884E680932E02101611063CF081E00D
:1007800090E0F6019383828310E000E0C801DF91DE
:10079000CF911F910F91FF90EF90DF90CF90BF907E
:1007A000AF909F908F900895089508952091FD0136
:1007B000260F3327331F21323105ECF420919002AC
:1007C000FC0190E080E0243069F082E00895A0917F
:1007D000FD012191AC0143525E4FA40FB52FB11D15
:1007E0002C930196861798F38091FD01680F609312
:1007F000FD0180E0089581E008951092900281E06B
:1008000080936F0210926A0261E082E00E94870288
:1008100061E083E00E948702E9EBF0E080818E7F57
:10082000808380818D7F808388E48093B80085E415
:100830008093BC000895CF93DF9391E09093DC0107
:100840008823B9F0C091B800D091BA008091BC0063
:100850008A7B8093BC0060E082E00E94870260E0B7
:1008600083E00E9487020E94FD03D093BA00C093E8
:10087000B800DF91CF910895CF92DF92EF92FF926F
:100880000F931F93CF93DF93D82FC62F613208F0B9
:1008900098C00E94F8026B017C0180919002811146
:1008A0006BC081E08093900280936F029FEF9093E2
:1008B0006E0210926D029C0F90936C0280936B02FB
:1008C00080916B02DD0FD82BD0936B0280916A026E
:1008D000813009F078C010926A020E94F8026B0120
:1008E0007C0180916B028093BB0080919202909179
:1008F0009302A0919402B0919502892B8A2B8B2BA5
:10090000A1F00E94F80200919202109193022091AE
:100910009402309195026C197D098E099F09061782
:1009200017072807390708F448C08091BC0083FDE9
:10093000D8CF85EC8093BC000E94F8026B017C014B
:1009400080919002813009F440C080916D028C1733
:1009500010F4C0916D02EAE4F2E0A0E7B2E080E0BA
:100960008C1355C08C2FDF91CF911F910F91FF9069
:10097000EF90DF90CF900895809192029091930232
:10098000A0919402B0919502892B8A2B8B2B09F4AC
:1009900084CF0E94F802009192021091930220915C
:1009A0009402309195026C197D098E099F090617F2
:1009B00017072807390708F070CF809191020E942D
:1009C0001B04C0E0CFCF85EEB5CF8091920290910D
:1009D0009302A0919402B0919502892B8A2B8B2BC4
:1009E00009F4AECF0E94F802009192021091930296
:1009F00020919402309195026C197D098E099F090E
:100A0000061717072807390708F09ACFD6CF919114
:100A10009D938F5FA5CF0895E09145028091440298
:100A2000E81730F4F0E0E059FD4F808190E0089540
:100A30008FEF9FEF089590914502809144022FEF30
:100A40003FEF981748F4E92FF0E0E059FD4F20817F
:100A500030E09F5F90934502C90108958091440260
:100A600090914502891B990B0895CF92DF92EF92E6
:100A7000FF920F931F93CF93DF937C01CB018A01E9
:100A800020914902222389F0EB016B01C40ED51E8F
:100A9000CC15DD0569F06991D701ED91FC910190CC
:100AA000F081E02DC7010995F3CF642F0E94D60392
:100AB000C801DF91CF911F910F91FF90EF90DF90D0
:100AC000CF900895CF93DF931F92CDB7DEB76983A0
:100AD000209149022223F9F020914602203258F059
:100AE00021E030E0FC013383228390E080E00F902E
:100AF000DF91CF91089580914702E82FF0E0E45410
:100B0000FE4F998190838F5F8093470280934602C6
:100B100081E090E0ECCF61E0CE0101960E94D60327
:100B2000F7CFCF92DF92EF92FF920F931F93CF9365
:100B3000DF93D091460281E0D13208F09CC0C09191
:100B400048020E94F8026B017C01809190028111A1
:100B50006CC082E08093900281E080936F028FEFFF
:100B600080936E0210926D02D0936C02ACEBB1E0F8
:100B7000EAE4F2E080E0D8138DC010926B0280911D
:100B80006B02CC0FC82BC0936B0280916A0281303C
:100B900009F084C010926A020E94F8026B017C0185
:100BA00080916B028093BB0080919202909193029E
:100BB000A0919402B0919502892B8A2B8B2BA1F0E6
:100BC0000E94F802009192021091930220919402E7
:100BD000309195026C197D098E099F090617170738
:100BE0002807390708F442C08091BC0083FDD8CFA4
:100BF00085EC8093BC000E94F8026B017C0180911F
:100C00009002823009F44CC080916E028F3F09F44B
:100C100069C080916E02803209F466C080916E02D4
:100C2000803309F463C084E026C0809192029091E1
:100C30009302A0919402B0919502892B8A2B8B2B61
:100C400009F483CF0E94F80200919202109193025E
:100C500020919402309195026C197D098E099F09AB
:100C6000061717072807390708F06FCF8091910200
:100C70000E941B0485E010924702109246021092D7
:100C80004902DF91CF911F910F91FF90EF90DF907C
:100C9000CF9008959D9191938F5F6DCF85EEA9CFF1
:100CA0008091920290919302A0919402B09195024A
:100CB000892B8A2B8B2B09F4A2CF0E94F80200917A
:100CC00092021091930220919402309195026C1936
:100CD0007D098E099F09061717072807390708F0AD
:100CE0008ECFC4CF80E0C7CF82E0C5CF83E0C3CF33
:100CF0001F93CF93DF93162FC2EFD2E0AC81BD815B
:100D00009B8121E020934902909348021092470270
:100D100010924602ED91FC9111970190F081E02D27
:100D2000682FCD0109958C819D81DC01ED91FC91AD
:100D30000190F081E02D612F09958C819D810E94A9
:100D4000910581E0DF91CF911F910895E2EFF2E0EC
:100D500082879387682F8DE390E00E9478066EE18A
:100D600070E080E090E00C941D0390E080E0089536
:100D7000FC0101900020E9F73197AF01481B590BA6
:100D8000BC0186E992E00C944F038F929F92AF9240
:100D9000BF920F931F93CF93DF93CDB7DEB7A19789
:100DA0000FB6F894DEBF0FBECDBF19A2423008F4D3
:100DB0004AE08E010F5D1F4F842E912CB12CA12C87
:100DC000A50194010E94F011E62FB901CA01EA3091
:100DD000F4F4E05DD801EE938D01232B242B252B19
:100DE00079F790E080E0109719F0CD010E94B806E5
:100DF000A1960FB6F894DEBF0FBECDBFDF91CF91A5
:100E00001F910F91BF90AF909F908F900895E95CD4
:100E1000E1CFCF93DF930E94B806EC018BE491E021
:100E20000E94B8068C0F9D1FDF91CF910895CF933C
:100E3000DF93C2EFD2E0AC81BD819B8121E02093A2
:100E40004902909348021092470210924602ED9197
:100E5000FC9111970190F081E02D682FCD0109954B
:100E60008C819D810E94910561E08B810E943C04F0
:100E700010924502809344028C819D81DC01ED91AA
:100E8000FC910284F385E02D0995DF91CF910895BF
:100E90004F925F926F927F928F929F92AF92BF928A
:100EA000CF92DF92EF92FF920F931F93CF936B013C
:100EB0007C01742EAC019B010E94EB11882399F0F8
:100EC0008EE491E0CF911F910F91FF90EF90DF9012
:100ED000CF90BF90AF909F908F907F906F905F90DA
:100EE0004F900C94B80646015701E894B7F82FEFDD
:100EF0003FEF4FE75FE7C501B4010E94EB1181119D
:100F00000DC02FEF3FEF4FE75FE7C501B4010E942F
:100F1000211018161CF482E591E0D4CF2FEF3FEF9B
:100F20004FE75FE4C701B6010E94791118161CF45F
:100F300086E591E0C7CF2FEF3FEF4FE75FECC701AA
:100F4000B6010E94211087FDF3CF20E030E0A90117
:100F5000C701B6010E94211010E000E087FF0AC01F
:100F60006DE286E992E00E9406028C01F7FAF094A5
:100F7000F7F8F094C0E060E070E080E09FE37C165A
:100F800041F020E030E040E251E40E942610CF5FC3
:100F9000F6CFA70196010E94B50F2B013C010E94DC
:100FA00098104B015C014AE00E94C5067C01E00EEE
:100FB000F11ECC23C1F1C501B4010E94C7109B01F1
:100FC000AC01C301B2010E94B40F4B015C016EE29F
:100FD00086E992E00E940602E80EF91EC15018F15F
:100FE00020E030E040E251E4C501B4010E947E11EE
:100FF0002B013C010E9498104B01B12CA12C4AE01E
:10100000C501B4010E94C506E80EF91EC501B40170
:101010000E94C7109B01AC01C301B2010E94B40F32
:101020004B015C01DBCFC701CF911F910F91FF9066
:10103000EF90DF90CF90BF90AF909F908F907F9078
:101040006F905F904F9008950C94B4128F929F927E
:10105000AF92BF92CF92DF92EF92FF920F931F93C6
:10106000CF93DF93CDB7DEB762970FB6F894DEBFAC
:101070000FBECDBF6C018B01FB01349680E2DF0116
:101080001D928A95E9F784E290E0A0E0B0E0FB01D0
:1010900080839183A283B383F60186819781A085A3
:1010A000B185FB0184839583A683B78383E090E0B9
:1010B000A0E0B0E080879187A287B3872FB7F8942C
:1010C0008091210290912202A0912302B0912402EA
:1010D0002FBF808B918BA28BB38B8CE0FE0131965E
:1010E000DF011D928A95E9F77E01BDE0EB0EF11C50
:1010F00086E0F70111928A95E9F7D60114968D9151
:101100009C91159713962C9131E0309349022093CE
:1011100048021092470210924602DC01ED91FC91C8
:101120000190F081E02D6AE10995F60184819581B5
:101130000E94910566E0D60113968C910E943C04B2
:1011400010924502809344025E01B3E1AB0EB11CE4
:10115000F60184819581DC01ED91FC910284F38597
:10116000E02D0995F70181937F01EA15FB0581F7D1
:101170006D857E85072E000C880B990B0E94C91087
:1011800020E030E040E85DE30E947E114B015C010D
:101190006F857889072E000C880B990B0E94C91067
:1011A00020E030E040E85DE30E947E116B017C01AD
:1011B00069897A89072E000C880B990B0E94C91047
:1011C00020E030E040E85DE30E947E11D8015496B3
:1011D0008D929D92AD92BC925797F801C08ED18EA0
:1011E000E28EF38E5C966D937D938D939C935F97C7
:1011F00081E062960FB6F894DEBF0FBECDBFDF91DF
:10120000CF911F910F91FF90EF90DF90CF90BF9003
:10121000AF909F908F9008950F931F93CF93DF937C
:101220008C01EB0188E2FB0111928A95E9F74BE012
:1012300050E06AE571E0CE010E943D131B8681E01B
:1012400090E0A0E0B0E08C879D87AE87BF87F80173
:1012500086819781A085B185888B998BAA8BBB8B62
:1012600083E090E0A0E0B0E08C8B9D8BAE8BBF8BD9
:101270001CA21DA21EA21FA2188E198E1A8E1B8ED2
:101280001C8E1D8E1E8E1F8E8AE097EDA3E2BCE39E
:1012900088A399A3AAA3BBA3DF91CF911F910F911C
:1012A000089585ED8093BC00809192029091930205
:1012B000A0919402B09195020796A11DB11D23E063
:1012C000B695A795979587952A95D1F72091BC005B
:1012D00024FD03C010929002089540919202509113
:1012E00093026091940270919502452B462B472BF7
:1012F00069F30097A105B10541F025E32A95F1F7BF
:1013000000000197A109B109E1CF809191020C94ED
:101310001B041F920F920FB60F9211248F939F936D
:101320008091E1009091E100937F9093E10083FF31
:101330000FC01092E90091E09093EB001092EC0046
:1013400092E39093ED001092430298E09093F000A6
:1013500082FF22C093E09093E9009091F2009923DC
:1013600019F09AE39093E80090912E02992341F0AE
:1013700090912E02915090932E02911101C05D9A8E
:1013800090914202992341F09091420291509093A2
:101390004202911101C0289A84FF18C08091E20096
:1013A0008E7E81608093E2008091E1008F7E809349
:1013B000E10080912F028E7E806180932F029F91A9
:1013C0008F910F900FBE0F901F90189580FFF7CF51
:1013D0008091E2008E7E80618093E2008091E10046
:1013E0008E7E8093E10080912F028E7E8160E5CF1A
:1013F0001F920F920FB60F921124CF92DF92EF92AD
:10140000FF920F931F932F933F934F935F936F938D
:101410007F938F939F93AF93BF93EF93FF93CF935C
:10142000DF93CDB7DEB76C97DEBFCDBF1092E9007A
:101430008091E80083FF25C068E0CE0145960E94B8
:10144000F90182EF8093E8008D8987FF39C0909180
:10145000E80090FFFCCF982F907609F034C19E8968
:101460004F89588D2F89F88C911131C0803861F5E2
:10147000809130028093F1001092F1008EEF809302
:10148000E8006C960FB6F894DEBF0FBECDBFDF91BB
:10149000CF91FF91EF91BF91AF919F918F917F91EC
:1014A0006F915F914F913F912F911F910F91FF90FD
:1014B000EF90DF90CF900F900FBE0F901F90189578
:1014C0009EEF9093E800C7CF1092F100D5CF9130F6
:1014D00059F48111D3CF4130510581F6809130020A
:1014E0008D7F80933002CACF933049F48111C6CFEB
:1014F0004130510519F6809130028260F2CF95306B
:1015000041F48091E80080FFFCCF20682093E30045
:10151000B5CF963009F0A9C00B8D1C8D22E010923A
:10152000E90010922C0210922B02F2122EC010929F
:101530002A02109229020E94C8011F8299E0998311
:10154000FA8291E09E8390EA98879AEF998720919A
:101550002B0230912C02275F3F4F3C832B838D83DE
:101560001092E90010922C0210922B0210932A0282
:101570000093290249E050E0BE016F5F7F4F80E099
:101580000E94A2010E94C80179CF10932A02009301
:1015900029020E942B01DC0112960D911C9101156C
:1015A000110509F451C1D801ED91FC910480F58138
:1015B000E02DBE016B5E7F4FC8010995009709F0D1
:1015C0003EC1F80100851185EACFF3E0FF120EC09D
:1015D0008F89882309F440C0823061F440E862E1D9
:1015E00087E791E00E946F01811148CF81E28093EB
:1015F000EB0047CF813029F440E868E08EE691E0C7
:10160000F1CF833099F70E942B01DC011296ED9007
:10161000FC908E010F5F1F4F6801E114F10479F017
:10162000D701ED91FC910680F781E02DB801C7014B
:101630000995080F111DF701E084F184EECFD80160
:101640001C92F60101900020E9F73197BF016C1957
:101650007D0940E0C601C6CF68E571E0FB01449119
:1016600050E080E80E94A20109CF973009F4BECF74
:10167000983021F481E08093F10000CF993009F097
:10168000FDCE837009F0B2CFE3E1F1E081E031E01B
:1016900096E32191222371F08093E9003093EB00CF
:1016A000DF0111972C912093EC009093ED008F5F58
:1016B000873079F78EE78093EA001092EA008F89ED
:1016C00080934302DBCE8B8D9C8D1092E9001092AB
:1016D0002C0210922B0290932A0280932902898D6A
:1016E000811192C08E899D89913A49F4813209F025
:1016F0007DCF47E050E064E071E080E0B3CF91320D
:1017000009F074CF833269F48F89988DB0E0A0E03E
:101710008093000190930101A0930201B093030113
:10172000ADCE803269F48091E80082FFFCCF67E0A3
:1017300084E091E00E94F9018BEF8093E8009ECE57
:10174000823209F09BCE8F8980930B01EEEFFFE789
:10175000859194918B3F9C4D51F1E0E0F8E08091B0
:10176000040190910501A0910601B0910701803B11
:101770009440A105B105F1F480910B0180FD1AC0E0
:10178000EE3F8AE0F80789F587E797E79183808342
:101790008091600080932D0288E19BE00FB6F89461
:1017A000A895809360000FBE9093600067CEEEEF27
:1017B000FAE0D5CF808191818737974709F05ECED7
:1017C000A8958091600088618093600080912D02CF
:1017D00080936000EE3F2AE0F20789F08091FE0AD4
:1017E0009091FF0A9183808349CE808191818737D0
:1017F000980751F29093FF0A8093FE0AC5CF10928A
:10180000FF0A1092FE0A3ACE0E942B01DC011296CA
:101810000D911C910115110509F4E8CED801ED9147
:10182000FC910190F081E02DBE016B5E7F4FC801FD
:101830000995811123CEF80100851185EBCF18168B
:1018400019060CF41BCED2CEF1E0FF12BECE6CE531
:1018500071E004CF1F920F920FB60F9211242F93B5
:101860003F938F939F93AF93BF9380912102909169
:101870002202A0912302B09124023091200223E0A1
:10188000230F2D3758F50196A11DB11D209320027D
:101890008093210290932202A0932302B09324020A
:1018A0008091250290912602A0912702B0912802F2
:1018B0000196A11DB11D8093250290932602A0934D
:1018C0002702B0932802BF91AF919F918F913F91D2
:1018D0002F910F900FBE0F901F90189526E8230FA1
:1018E0000296A11DB11DD2CF1F920F920FB60F927B
:1018F00011242F933F934F935F936F937F938F9315
:101900009F93AF93BF93EF93FF938091B900887F2C
:10191000803609F44AC0F0F5883209F4A7C018F5FA
:10192000803109F49BC0B8F4882309F4F9C08830E9
:1019300009F494C0FF91EF91BF91AF919F918F9166
:101940007F916F915F914F913F912F910F900FBEBB
:101950000F901F901895883109F488C0803251F794
:1019600080936E0214C0803409F49DC040F480332B
:10197000B9F38833F9F680936E0285ECB0C08035F8
:1019800009F485C0883509F496C0883499F60E9418
:101990005109D0CF883909F48CC038F5883729F03F
:1019A00050F4883611F0803729F683E08093900256
:1019B00010921F0257C0883809F47BC0803919F093
:1019C000803809F0B7CF80911F02803208F071C0D3
:1019D000E0911F0281E08E0F80931F028091BB0077
:1019E000F0E0E150FE4F80833DC0803B39F0E0F4F1
:1019F000803A09F479C0883A09F09CCF84E080935A
:101A000090021092FE011092FD01E0913302F091DC
:101A1000340209958091FD0181110FC081E080930E
:101A2000FD011092DD0109C0803C09F4A6CF883C7D
:101A300009F4A3CF883B09F07DCFE091FE0181E05E
:101A40008E0F8093FE01F0E0E352FE4F8081809381
:101A5000BB009091FE018091FD0129C080916B0235
:101A60008093BB0085EC8093BC0064CF90916D02A5
:101A700080916C02981758F5E0916D0281E08E0F0D
:101A800080936D02F0E0E65BFD4F8081E9CFE0914D
:101A90006D0281E08E0F80936D028091BB00F0E0BB
:101AA000E65BFD4F808390916D0280916C029817E8
:101AB000C8F285E8D8CFE0916D0281E08E0F809367
:101AC0006D028091BB00F0E0E65BFD4F808380916A
:101AD0006F0281115CCF81E080936A0284EA809377
:101AE000BC001092900226CF85EC8093BC0010922F
:101AF000900280911F02803230F4E0911F02F0E0EA
:101B0000E150FE4F108260911F0270E0E0913102BF
:101B1000F09132028FEF91E0099510921F020ACFE7
:101B200010926E0234CFE6E9F2E01382128248EEA0
:101B300053E060E070E044835583668377838DE1F2
:101B400091E0918380838FEF9FEF95878487A6EE46
:101B5000B2E013961C921E92129714964D935D93C9
:101B60006D937C9317978FE291E011969C938E93DF
:101B7000E2EFF2E081E491E09183808347E350E07B
:101B800060E070E0468357836087718788E28383D3
:101B9000B583A4830895CF93DF93CDB7DEB7A49721
:101BA0000FB6F894DEBF0FBECDBF789484B58260C7
:101BB00084BD84B5816084BD85B5826085BD85B5F1
:101BC000816085BD80916E00816080936E0010926F
:101BD00081008091810082608093810080918100EA
:101BE000816080938100809180008160809380007B
:101BF000809191008260809391008091910081603A
:101C000080939100809190008160809390008091FA
:101C1000C10084608093C1008091C1008260809384
:101C2000C1008091C10081608093C1008091C30098
:101C300081608093C3008091C00082608093C00067
:101C40008091C20081608093C20080917A0084609C
:101C500080937A0080917A00826080937A008091EC
:101C60007A00816080937A0080917A008068809306
:101C70007A00109243021092300210922F0280914B
:101C8000D70081608093D70080EA8093D80089B51F
:101C9000806189BD89B5826089BD09B400FEFDCF30
:101CA00061E070E080E090E00E941D038091D80028
:101CB0008F7C80618093D8008091E000807F80934A
:101CC000E0008091E1008E7E8093E1008DE08093C2
:101CD000E200559A209A8FEF9FEF9093A302809392
:101CE000A20281E691E00E9409078AEB91E00E943E
:101CF0000907109245021092440210924702109276
:101D000046020E94FD038FE391E09093340280939A
:101D1000330280E491E0909332028093310290E0AC
:101D200080E00E941707803A89F068EE73E080E057
:101D300090E00E941D0390E080E00E941707803A27
:101D400029F089E791E00E94B806FFCF90E080E09B
:101D50000E94A60660E28FE390E00E9478066EE1A2
:101D600070E080E090E00E941D0390E080E00E941F
:101D70001707803A29F06AE070E080E090E0F3CF46
:101D800062E370E080E090E00E941D0360E08EE37B
:101D900090E00E9478066AE070E080E090E00E94A7
:101DA0001D0360E087E090E00E94780660E08FE32A
:101DB00090E00E9478066AE070E080E090E00E9487
:101DC0001D038CE090E00E94A60664E170E080E0D4
:101DD00090E00E941D0368EE73E080E090E00E94B6
:101DE0001D030091FC021091FD0290E080E00E9432
:101DF000A60669E170E080E090E00E941D0360E0CB
:101E000087E090E00E94780660E88FE390E00E940F
:101E100078066AE070E080E090E00E941D03C8014F
:101E20000E94A60664E170E080E090E00E941D033D
:101E300020E0E22E20E0F22EDD24D39486E992E029
:101E40000E946D021816190694F486E992E00E9429
:101E50002B028E3609F485C0893709F47FC0883695
:101E600031F41092350286EB91E00E9409078091CF
:101E70003502882309F46BC0BE016F5F7F4F82EF8C
:101E800092E00E94260885E390E00E941707C82E82
:101E9000082F10E06D897E898F89988D44E00E941B
:101EA000480789EB91E00E94B8066D8D7E8D8F8D7D
:101EB00098A144E00E94480789EB91E00E94B8068F
:101EC000698D7A8D8B8D9C8D44E00E94480789EB4B
:101ED00091E00E94B8066C2D6295669566956370D8
:101EE00070E090E080E04AE00E94C50689EB91E056
:101EF0000E94B806B80184E0759567958A95E1F768
:101F0000637070E090E080E04AE00E94C50689EBD3
:101F100091E00E94B80615950795159507950370F1
:101F2000602F70E090E080E04AE00E94C50689EBF7
:101F300091E00E94B8066C2D637070E090E080E044
:101F40004AE00E94C5068AEB91E00E940907E1146D
:101F5000F10409F473CF0E94000070CFD0923502D3
:101F600086CF1092350283CF5058BB27AA270E94F4
:101F7000CC0F0C943F110E94311138F00E9438119F
:101F800020F039F49F3F19F426F40C942E110EF42E
:101F9000E095E7FB0C942811E92F0E94501158F3AB
:101FA000BA17620773078407950720F079F4A6F53E
:101FB0000C9472110EF4E0950B2EBA2FA02D0B018C
:101FC000B90190010C01CA01A0011124FF27591B7E
:101FD00099F0593F50F4503E68F11A16F040A22F84
:101FE000232F342F4427585FF3CF469537952795F5
:101FF000A795F0405395C9F77EF41F16BA0B620BF4
:10200000730B840BBAF09150A1F0FF0FBB1F661F3A
:10201000771F881FC2F70EC0BA0F621F731F841F7D
:1020200048F4879577956795B795F7959E3F08F0A3
:10203000B0CF9395880F08F09927EE0F9795879565
:1020400008950E94041108F481E008950E943A1056
:102050000C943F110E94381158F00E94311140F049
:1020600029F45F3F29F00C94281151110C9473113D
:102070000C942E110E94501168F39923B1F355234B
:1020800091F3951B550BBB27AA276217730784078B
:1020900038F09F5F5F4F220F331F441FAA1FA9F321
:1020A00035D00E2E3AF0E0E832D091505040E6950F
:1020B000001CCAF72BD0FE2F29D0660F771F881F70
:1020C000BB1F261737074807AB07B0E809F0BB0B63
:1020D000802DBF01FF2793585F4F3AF09E3F510577
:1020E00078F00C9428110C9473115F3FE4F3983E40
:1020F000D4F3869577956795B795F7959F5FC9F760
:10210000880F911D9695879597F90895E1E0660FE0
:10211000771F881FBB1F621773078407BA0720F059
:10212000621B730B840BBA0BEE1F88F7E0950895C2
:102130000E94581188F09F5798F0B92F9927B751EE
:10214000B0F0E1F0660F771F881F991F1AF0BA955B
:10215000C9F714C0B13091F00E947211B1E0089536
:102160000C947211672F782F8827B85F39F0B93F28
:10217000CCF3869577956795B395D9F73EF490950E
:102180008095709561957F4F8F4F9F4F0895E8948C
:1021900009C097FB3EF490958095709561957F4FAF
:1021A0008F4F9F4F9923A9F0F92F96E9BB2793955D
:1021B000F695879577956795B795F111F8CFFAF46D
:1021C000BB0F11F460FF1BC06F5F7F4F8F4F9F4F9E
:1021D00016C0882311F096E911C0772321F09EE8FC
:1021E000872F762F05C0662371F096E8862F70E062
:1021F00060E02AF09A95660F771F881FDAF7880F3C
:102200009695879597F90895990F0008550FAA0B91
:10221000E0E8FEEF16161706E807F907C0F01216F9
:102220001306E407F50798F0621B730B840B950BFC
:1022300039F40A2661F0232B242B252B21F4089551
:102240000A2609F4A140A6958FEF811D811D0895EE
:1022500097F99F6780E870E060E008959FEF80EC59
:10226000089500240A9416161706180609060895FC
:1022700000240A9412161306140605060895092E62
:102280000394000C11F4882352F0BB0F40F4BF2BD1
:1022900011F460FF04C06F5F7F4F8F4F9F4F089511
:1022A00057FD9058440F551F59F05F3F71F0479507
:1022B000880F97FB991F61F09F3F79F087950895EC
:1022C000121613061406551FF2CF4695F1DF08C00B
:1022D000161617061806991FF1CF86957105610528
:1022E00008940895E894BB2766277727CB0197F9D0
:1022F00008950E94041108F48FEF08950E9491112F
:102300000C943F110E94311138F00E94381120F0D6
:10231000952311F00C9428110C942E1111240C9477
:1023200073110E94501170F3959FC1F3950F50E007
:10233000551F629FF001729FBB27F00DB11D639F77
:10234000AA27F00DB11DAA1F649F6627B00DA11D1D
:10235000661F829F2227B00DA11D621F739FB00DC3
:10236000A11D621F839FA00D611D221F749F332733
:10237000A00D611D231F849F600D211D822F762FCC
:102380006A2F11249F5750409AF0F1F088234AF0A9
:10239000EE0FFF1FBB1F661F771F881F9150504015
:1023A000A9F79E3F510580F00C9428110C947311ED
:1023B0005F3FE4F3983ED4F3869577956795B7959C
:1023C000F795E7959F5FC1F7FE2B880F911D9695B6
:1023D000879597F908950E940411880B990B089529
:1023E000A1E21A2EAA1BBB1BFD010DC0AA1FBB1F19
:1023F000EE1FFF1FA217B307E407F50720F0A21B8B
:10240000B30BE40BF50B661F771F881F991F1A94F7
:1024100069F760957095809590959B01AC01BD0121
:10242000CF010895EE0FFF1F0590F491E02D099460
:102430000F931F93CF93DF938230910510F482E0C6
:1024400090E0E0910003F091010330E020E0B0E083
:10245000A0E0309799F42115310509F44AC0281BF2
:10246000390B24303105D8F58A819B8161157105BE
:1024700089F1FB0193838283FE0111C04081518168
:102480000281138148175907E0F04817590799F45A
:10249000109761F012960C93129713961C93329634
:1024A000CF01DF91CF911F910F9108950093000309
:1024B00010930103F4CF2115310551F04217530752
:1024C00038F0A901DB019A01BD01DF01F801C1CF9C
:1024D000EF01F9CF9093010380930003CDCFFE016C
:1024E000E20FF31F8193919322503109398328839E
:1024F000D7CF2091FE023091FF02232B41F420918F
:102500000E0130910F013093FF022093FE022091C3
:102510000C0130910D012115310541F42DB73EB765
:102520004091100150911101241B350BE091FE02E6
:10253000F091FF02E217F307A0F42E1B3F0B2817C0
:10254000390778F0AC014E5F5F4F2417350748F02C
:102550004E0F5F1F5093FF024093FE0281939193B1
:102560009FCFF0E0E0E09CCFCF93DF930097E9F0BE
:10257000FC01329713821282A0910003B0910103F3
:10258000ED0130E020E01097A1F420813181820F2D
:10259000931F2091FE023091FF022817390709F09E
:1025A00061C0F093FF02E093FE02DF91CF910895A6
:1025B000EA01CE17DF07E8F54A815B819E014115EC
:1025C0005105B1F7E901FB83EA8349915991C40FA1
:1025D000D51FEC17FD0761F4808191810296840F6D
:1025E000951FE90199838883828193819B838A83E4
:1025F000F0E0E0E012968D919C9113970097B9F569
:102600002D913C911197CD010296820F931F20913D
:10261000FE023091FF022817390739F6309751F53D
:102620001092010310920003B093FF02A093FE02E8
:10263000BCCFD383C28340815181840F951FC817BB
:10264000D90761F44E5F5F4F88819981480F591F08
:10265000518340838A819B81938382832115310535
:1026600009F0B0CFF0930103E09300039ECFFD018A
:10267000DC01C0CF13821282D7CFFB01DC014150B5
:10268000504048F001900D920020C9F701C01D9202
:0C26900041505040E0F70895F894FFCF4F
:10269C00FFFFFFFF00E1000000000000000002034C
:1026AC00800000C180810000000000000006024F85
:1026BC000327021C026D022B02490200000000627B
:1026CC00053505B5060B052E051B050C0500000090
:1026DC0000D4032408D50326080C090D0A006E61EA
:1026EC006E00696E66006F766600424E4F3035356F
:1026FC00004F7269656E746174696F6E2053656EFC
:10270C00736F722054657374004552524F523A20C5
:10271C006E6F20424E4F303535206465746563749E
:10272C006564202E2E2E20436865636B20796F75AF
:10273C007220776972696E67206F7220493243206C
:0C274C004144445221004869000900008B
:00000001FF
